:0200000470008A
:10000000464346420004015600000000010303007D
:1000100000000000000000000000000000000000E0
:1000200000000000000000000000000000000000D0
:1000300000000000000000000000000000000000C0
:1000400000000000000408000000000000000000A4
:100050000000400000000000000000000000000060
:100060000000000000000000000000000000000090
:100070000000000000000000000000000000000080
:10008000EB04180A063204260000000000000000FD
:100090000000000000000000000000000000000060
:1000A0000000000000000000000000000000000050
:1000B0000000000000000000000000000000000040
:1000C0000000000000000000000000000000000030
:1000D0000000000000000000000000000000000020
:1000E0000000000000000000000000000000000010
:1000F0000000000000000000000000000000000000
:1001000000000000000000000000000000000000EF
:1001100000000000000000000000000000000000DF
:1001200000000000000000000000000000000000CF
:1001300000000000000000000000000000000000BF
:1001400000000000000000000000000000000000AF
:10015000000000000000000000000000000000009F
:10016000000000000000000000000000000000008F
:10017000000000000000000000000000000000007F
:10018000000000000000000000000000000000006F
:10019000000000000000000000000000000000005F
:1001A000000000000000000000000000000000004F
:1001B000000000000000000000000000000000003F
:1001C000000100000010000000000000000000001E
:1001D000000001000000000000000000000000001E
:1001E000000000000000000000000000000000000F
:1001F00000000000000000000000000000000000FF
:0200000470008A
:10100000D10020410020007000000000301000706E
:1010100020100070001000700000000000000000B0
:10102000000000700000400000000000FFFFFFFF14
:10103000D2043041CC03AC04400FC068FFFFFFFF77
:10104000400FC06CFFFFFFFF400FC070FFFFFFFFAE
:10105000400FC074FFFFFFFF400FC078FFFFFFFF8E
:10106000400FC07CFFFFFFFF400FC080FFFFFFFF6E
:10107000400D803000002001400D8100001D000067
:10108000400FC01400010D40401F801400000000FC
:10109000401F801800000000401F801C000000005E
:1010A000401F802000000000401F8024000000003E
:1010B000401F802800000000401F802C000000001E
:1010C000401F803000000000401F803400000000FE
:1010D000401F803800000000401F803C00000000DE
:1010E000401F804000000000401F804400000000BE
:1010F000401F804800000000401F804C000000009E
:10110000401F805000000000401F8054000000007D
:10111000401F805800000000401F805C000000005D
:10112000401F806000000000401F8064000000003D
:10113000401F806800000000401F806C000000001D
:10114000401F807000000000401F807400000000FD
:10115000401F807800000000401F807C00000000DD
:10116000401F808000000000401F808400000000BD
:10117000401F808800000000401F808C000000009D
:10118000401F809000000000401F8094000000007D
:10119000401F809800000000401F809C000000005D
:1011A000401F80A000000000401F80A4000000003D
:1011B000401F80A800000000401F80AC000000001D
:1011C000401F80B000000010401F80B400000000ED
:1011D000401F80B800000000401F8204000110F989
:1011E000401F8208000110F9401F820C000110F915
:1011F000401F8210000110F9401F8214000110F9F5
:10120000401F8218000110F9401F821C000110F9D4
:10121000401F8220000110F9401F8224000110F9B4
:10122000401F8228000110F9401F822C000110F994
:10123000401F8230000110F9401F8234000110F974
:10124000401F8238000110F9401F823C000110F954
:10125000401F8240000110F9401F8244000110F934
:10126000401F8248000110F9401F824C000110F914
:10127000401F8250000110F9401F8254000110F9F4
:10128000401F8258000110F9401F825C000110F9D4
:10129000401F8260000110F9401F8264000110F9B4
:1012A000401F8268000110F9401F826C000110F994
:1012B000401F8270000110F9401F8274000110F974
:1012C000401F8278000110F9401F827C000110F954
:1012D000401F8280000110F9401F8284000110F934
:1012E000401F8288000110F9401F828C000110F914
:1012F000401F8290000110F9401F8294000110F9F4
:10130000401F8298000110F9401F829C000110F9D3
:10131000401F82A0000110F9401F82A4000110F9B3
:10132000401F82A8000110F9402F000010000004A7
:10133000402F000800030524402F000C060305245D
:10134000402F00108000001B402F00148200001B63
:10135000402F00188400001B402F001C8600001B3B
:10136000402F002090000021402F0024A0000019F1
:10137000402F0028A8000017402F002CA900001BB8
:10138000402F003000000021402F0004000079A809
:10139000402F004000000F31402F004400652922FB
:1013A000402F004800010920402F004C50210A081E
:1013B000402F008000000021402F00840088888892
:1013C000402F009400000002402F00980000000011
:1013D000402F009080000000402F009CA55A000F75
:1013E000CF000C1C402F003C00000001CC00140476
:1013F000402F009080000000402F009CA55A000C58
:10140000CF000C1C402F003C00000001CC00140455
:10141000402F009080000000402F009CA55A000C37
:10142000CF000C1C402F003C00000001CC001C042D
:10143000402F00A000000033402F009080000000EB
:10144000402F009CA55A000ACF000C1C402F003CE6
:1014500000000001CC000C04402F004C50210A0970
:0200000470008A
:10200000847F012015240070A9840080E1040080F1
:10201000E1040080091A0080E1C300800000000094
:1020200000000000000000000000000069A0008027
:10203000414C0080000000002F04008091B8008017
:1020400073240070772400707B2400707F2400705C
:1020500083240070872400708B2400708F2400700C
:1020600093240070972400709B2400709F240070BC
:10207000A3240070A7240070AB240070AF2400706C
:10208000B324007043250070432500704325007081
:10209000B7240070BB240070BF240070C3240070FC
:1020A000C7240070CB240070CF240070D3240070AC
:1020B000D7240070DB240070DF240070E32400705C
:1020C000E7240070EB240070EF240070F32400700C
:1020D000F7240070FB240070432500704325007036
:1020E0004325007043250070432500707133008044
:1020F0004325007043250070432500704325007080
:10210000432500704325007043250070432500706F
:10211000432500704325007043250070432500705F
:10212000FF24007003250070072500700B25007048
:102130000F25007043250070432500704325007073
:10214000432500704325007043250070432500702F
:10215000432500704325007043250070432500701F
:10216000432500704325007043250070432500700F
:1021700043250070432500704325007043250070FF
:102180004325007043250070915200800153008068
:1021900041530080432500704325007043250070A3
:1021A000432500704325007013250070172500702B
:1021B00043250070432500704325007043250070BF
:1021C00043250070432500704325007043250070AF
:1021D000432500704325007043250070432500709F
:1021E0004325007043250070432500701B250070B7
:1021F0001F250070432500702325007027250070DF
:1022000069C3008051C300802B250070B94E008047
:10221000432500704325007043250070432500705E
:102220004325007043250070C98800804325007055
:10223000432500704325007043250070432500703E
:10224000432500704325007043250070432500702E
:10225000432500704325007043250070432500701E
:10226000432500704325007043250070432500700E
:1022700043250070432500704325007043250070FE
:1022800043250070432500704325007043250070EE
:1022900043250070432500704325007043250070DE
:1022A00033250070372500703B25007043250070F2
:1022B0003F250070432500704325007043250070C2
:1022C00043250070432500704325007043250070AE
:1022D000432500704325007043250070432500709E
:1022E000432500704325007043250070432500708E
:1022F000432500704325007043250070432500707E
:10230000432500704325007043250070432500706D
:10231000432500704325007043250070432500705D
:10232000432500704325007043250070432500704D
:10233000432500704325007043250070432500703D
:10234000432500704325007043250070432500702D
:10235000432500704325007043250070432500701D
:10236000432500704325007043250070432500700D
:1023700043250070432500704325007043250070FD
:1023800043250070432500704325007043250070ED
:1023900043250070432500704325007043250070DD
:1023A00043250070432500704325007043250070CD
:1023B00043250070432500704325007043250070BD
:1023C00043250070432500704325007043250070AD
:1023D000432500704325007043250070432500709D
:1023E000432500704325007043250070432500708D
:1023F000432500704325007043250070FFFFFFFF59
:10240000DFF80CD000F018F900480047810C00807C
:10241000847F01204C484AF6AF21CAF6AA21016008
:102420004A48016841F00401016049480168C0F26E
:1024300000014FF007024FF00A034FEA02424FEA51
:10244000035342EA0301016072B642484249016007
:102450000A6882F308884148804762B640480047CE
:10246000FEE7FEE7FEE7FEE7FEE7FEE7FEE7FEE744
:10247000FEE73C4800473C4800473C4800473C4892
:1024800000473C4800473C4800473C4800473C4820
:1024900000473C4800473C4800473C4800473C4810
:1024A00000473C4800473C4800473C4800473C4800
:1024B00000473C4800473C4800473C4800473C48F0
:1024C00000473C4800473C4800473C4800473C48E0
:1024D00000473C4800473C4800473C4800473C48D0
:1024E00000473C4800473C4800473C4800473C48C0
:1024F00000473C4800473C4800473C4800473C48B0
:1025000000473C4800473C4800473C4800473C489F
:1025100000473C4800473C4800473C4800473C488F
:1025200000473C4800473C4800473C4800473C487F
:1025300000473C4800473C4800473C4800473C486F
:1025400000473C480047000044C00A4040C00A40E1
:1025500038C00A4008ED00E00020007061260070DD
:10256000012400703944008069460080B94600802B
:102570000947008059470080A9470080F94700803B
:102580004948008099480080E948008089440080DB
:10259000D94400802945008079450080C9450080E4
:1025A000194600804325007061720080917200809E
:1025B000C1720080F172008021730080517300802D
:1025C00081730080B1730080F95E0080095F008034
:1025D000215F0080395F0080F15F008039600080FA
:1025E00081600080C9600080111A0080691A008033
:1025F000219C0080C99C0080719D0080C99D008045
:10260000D99F00806951008071510080432500707E
:102610004325007081C30080B1C30080C94F008092
:1026200043250070A94E008043250070C11A008028
:102630007951008043250070064C074D06E0E068A4
:1026400040F0010394E8070098471034AC42F6D3F9
:10265000FFF7DAFED02800700029007000000000AB
:1026600080B588B04EF68850CEF20000016841F483
:10267000700101604FF4806002904FF000400490C0
:1026800042F20000C7F20000039002988008019017
:10269000FFE70198411E0191002808D0FFE7039849
:1026A000019950F82100049A42F82100F1E70498BA
:1026B0004EF60851CEF20001086048F20800C4F25C
:1026C0000B00018821F0010101800820C4F20D00F7
:1026D000018821F00101018048F20000C4F20B00E2
:1026E00000884007002809D5FFE748F20000C4F23F
:1026F0000B00018821F004010180FFE70020C4F2F3
:102700000D0000884007002808D5FFE70020C4F22C
:102710000D00018821F004010180FFE74CF2000068
:10272000C4F20B000068800400280AD5FFE74CF2D1
:102730000400C4F20B004CF22051CDF628110160C8
:102740000AE04CF20400C4F20B004CF2205101608C
:102750004DF628110160FFE74CF20800C4F20B00AF
:102760004FF6FF7101604CF20000C4F20B000168EB
:1027700041F0200121F0800101604EF21000CEF204
:1027800000000068C007002809D0FFE74EF21000E3
:10279000CEF20000016821F001010160FFE74EF672
:1027A0001450CEF20000006800F40030B0F5003F95
:1027B00026D0FFE74EF61450CEF2000000688003EA
:1027C000002801D5FFE71AE0BFF34F8FBFF36F8FEB
:1027D0004EF65070CEF2000000210160BFF34F8F23
:1027E000BFF36F8F4EF61450CEF20000016841F433
:1027F00000310160BFF34F8FBFF36F8FFFE7FFE73B
:102800004EF61450CEF20000006800F48030B0F5AF
:10281000803F48D0FFE74EF61450CEF2000000682B
:10282000C003002801D5FFE73CE04EF68450CEF20D
:10283000000000210160BFF34F8F4EF68050CEF2B2
:102840000000006807900798C0F34E300690FFE73D
:102850000798C0F3C9000590FFE706980599890716
:1028600060F34D114EF66070CEF2000001600598E5
:10287000411E05910028F0D1FFE70698411E069100
:102880000028E5D1FFE7BFF34F8F4EF61450CEF28C
:102890000000016841F480310160BFF34F8FBFF346
:1028A0006F8FFFE7FFE700F003F808B080BD00007E
:1028B000704702E008C8121F08C1002AFAD1704709
:1028C0007047002001E001C1121F002AFBD17047B0
:1028D0000029007000040080C8430200B228007084
:1028E000006D027000000020C0010000240C008078
:1028F000406E0270C0010020C4690100C22800704F
:10290000EFF3108072B6704780F310887047424A28
:102910001368012B04D04FF0010313603F4A10608D
:102920003F4A11603F484FF0805101607047EFF31C
:10293000108272B63848016851B34FF0000101604F
:102940003648016891B1EFF309811EF0100F08BFFE
:1029500021ED108B21E9F00F4FF000041EF0100F55
:1029600008BF012441F8044D006801602C49096842
:10297000096808C9B1E8F00F002B18BFB1EC108B43
:1029800081F309884EF0100E002B18BF2EF0100EA8
:1029900082F310884EF0040E704721490860EFF36F
:1029A000148222F0040282F314881C494FF00000C4
:1029B000086019494FF0010008601B481B49D0F816
:1029C000002041EA0201016016484FF08051016089
:1029D00017480068006880F3088861B662B67047DF
:1029E0001EF0040F0CBFEFF30880EFF3098020E91D
:1029F000F00F40F804ED40F804ED1EF0040F0CBF9A
:102A000080F3088880F3098800B51BF0A1F95DF810
:102A100004EB4EF0040E70474C69012088660120DB
:102A20009466012004ED00E020ED00E00000FFFFCF
:102A300008ED00E02DE9F05F0546002092469B4638
:102A400088460646814640241BE0284641464746C4
:102A5000224600F019F953465A46C01A914110D344
:102A600011461846224600F000F92D1A67EB0108BE
:102A70004F4622460120002100F0F7F817EB00092D
:102A80004E41201EA4F10104DFDC484631462A46AF
:102A90004346BDE8F09F2DE9F0410024061B254682
:102AA00071F1000605DA01240027D0EB070067EB7F
:102AB0000101161E73F1000605DA0027D2EB0702AA
:102AC000012567EB0303FFF7B5FF86460E46174661
:102AD0009C46AC4204D00025D0EB050E65EB010608
:102AE00024B10020D2EB000760EB030C70463146A6
:102AF0003A466346BDE8F08110B540EA010403465A
:102B0000A40703D009E010C9121F10C3042AFAD287
:102B100003E011F8014B03F8014B521EF9D210BD2E
:102B2000D2B201E000F8012B491EFBD2704700220F
:102B3000F6E710B513460A4604461946FFF7F0FFBC
:102B4000204610BD421E12F8013F002BFBD111F8A8
:102B5000013B02F8013B002BF9D1704710B5044648
:102B600004E00B7800F8013B03B1491C521EF8D277
:102B7000204610BD421C10F8011B0029FBD1801A11
:102B8000704730B504460020034600E05B1C9342CA
:102B900003D2E05CCD5C401BF8D030BD034611F899
:102BA000012B00F8012B002AF9D11846704730B5E7
:102BB00005460020034600E05B1C934205D2EC5C16
:102BC000C85C201A01D1002CF6D130BD3EB5CA1721
:102BD000CB0F002450405140C0186141DA0740F249
:102BE00033430094CDE901232246234600F06BF8DD
:102BF00003B030BD70B5C1F30A5201F000450024A6
:102C0000C1F3130140F2FF3341F480119A4202DA1A
:102C10000020014670BD40F233439A42A2F2334293
:102C200003DC524200F030F801E000F01EF82C43C3
:102C3000F0D00023D0EB030063EB010170BD30B591
:102C40000B46014600202022012409E021FA02F56A
:102C50009D4205D303FA02F5491B04FA02F5284404
:102C6000151EA2F10102F1DC30BD202A04DB203A5E
:102C700000FA02F1002070479140C2F1200320FACF
:102C800003F3194390407047202A04DB203A21FACD
:102C900002F00021704721FA02F3D040C2F1200275
:102CA000914008431946704710B5141E73F1000493
:102CB00008DA401C41F1000192185B411A4301D12E
:102CC00020F0010010BD2DE9F04D92469B4611B158
:102CD000B1FA81F202E0B0FA80F220329046FFF7BA
:102CE000C4FF04460F4640EA0A0041EA0B0153467E
:102CF0005A46084313D0114653EA010019D0C8F1CF
:102D000040025046FFF7C0FF05460E465046594662
:102D10004246FFF7AAFF084305D0012004E0204601
:102D20003946BDE8F08D0020054346EAE0762C43A5
:102D300037430A986305E40AA0EB08000022FD0A65
:102D400044EA47540A3002D500200146E9E701056C
:102D500010196941DDE9084500196941BDE8F04DE8
:102D6000A2E72DE9FE4F804681EA0300C00F0C4622
:102D7000009021F0004123F00045B8EB0200A9418A
:102D800005D24046214690461C460B46024623F09B
:102D90000040104347D0270DC7F30A00C3F30A5180
:102DA0000290401A019040286BDAC3F3130040F4FC
:102DB000801B0098924620B10023D2EB030A63EBFC
:102DC0000B0B01985946C0F140025046FFF74DFFEA
:102DD00006460D4650465946019A00F091F910EB0F
:102DE00008006141002487EA115284EAE7731A431C
:102DF00040D0009A62B3019A012A4FEA075215DCCB
:102E0000001B61EB02014FF0004202EA0752CDE9DC
:102E10000042001C41F5801132462B46FFF753FF5C
:102E200003B0BDE8F08F40462146F9E7001B61EB97
:102E30000201001C41F5801300185B412018A2F527
:102E4000001747EB030140EAD570B6196D4111E058
:102E50006D084FEA360645EAC0754FEA0752001B77
:102E600061EB0201001C41F5801149084FEA300076
:102E70000019514132462B4603B0BDE8F04FFFF731
:102E800013BF0098012240000023D0EB020263EB45
:102E9000E073009821464FEAE074B8EB000061EB64
:102EA0000401E9E783F000435BE781F0004158E764
:102EB0002DE9FE4F81EA030404F0004421F00041B3
:102EC00000944FF0000B23F0004350EA01045ED061
:102ED00052EA03045BD0C3F30A54C1F30A552C44ED
:102EE000A4F2F3340194A0FB0254C1F3130141F4A2
:102EF0008011C3F3130343F4801301FB024400FB6E
:102F0000034E840A970A44EA815447EA8357A4FB94
:102F1000076802958D0A05FB07854FEA932C04FB91
:102F20000C542705029D4FEA065847EA1637B5EBC1
:102F300008056EEB070C870E920E47EA811742EAEE
:102F40008312A7FB0201B6EB0B0164EB00042B0D0F
:102F500043EA0C335E1844EB1C50DA465146E7FB5B
:102F60000201C5F313044FEA0B3343EA14534FEA4B
:102F70000432019C43EA0603A4F10C040294009C71
:102F8000CDE900B4FFF79FFE03B0BDE8F08F00204D
:102F90000146F9E72DE9F04D81EA030404F0004B06
:102FA00021F0004514464FF0000A23F0004150EA9A
:102FB000050220D054EA01021DD0C5F30A5702468B
:102FC000C5F31303C1F31300C1F30A5640F480158F
:102FD00043F48013A7EB0608101BD64608F2FD3811
:102FE00073EB050002D308F1010801E092185B4180
:102FF000B8F1000F03DA00200146BDE8F08D002093
:103000004FF48011064684460EE0171B73EB05074C
:1030100005D3121B63EB050306434CEA010C490878
:103020004FEA300092185B4150EA0107EDD152EAB5
:10303000030012D082EA040083EA0501084305D0A8
:10304000101BAB4106D20122002306E000224FF004
:10305000004302E06FF0010253101AEB06004CEB44
:10306000085110EB0A0041EB0B01BDE8F04DFFF7F2
:103070001BBE70B521F0004303430CD0C1F30A55C9
:103080000024D5EB040564EB0403D617AD1AB34155
:1030900002DB0020014670BD201841EB025170BDDB
:1030A000C1F30A52C1F3130140F2FF3341F480111E
:1030B0009A4202DA00200146704740F233439A42B6
:1030C000A2F2334202DC5242FFF7DEBDFFF7CDBD74
:1030D00030B5041E71F1000404DB4FF0004440429F
:1030E00064EB0101141E73F1000405DB1C464FF074
:1030F0000043524263EB0403994208BF904230BD43
:10310000202A06DBCB17203A41FA02F043EAE073AB
:1031100006E041FA02F3D040C2F120029140084398
:103120001946704770B58C1810F8015B15F007034D
:1031300001D110F8013B2A1106D110F8012B03E050
:1031400010F8016B01F8016B5B1EF9D12B0705D458
:103150000023521E0DD401F8013BFAE710F8013BA1
:10316000CB1A921C03E013F8015B01F8015B521EBD
:10317000F9D5A142D8D3002070BD000000000000A6
:1031800080B582B01EF0DCF94FF0000E0190704661
:1031900002B080BD00000000BFF35F8F4EF62450E8
:1031A000CEF20000016821F4803101604EF69450A7
:1031B000CEF20000016821F00101016070470000BB
:1031C00082B001460190019840F001004EF6945201
:1031D000CEF2000210604EF62450CEF200000268DB
:1031E00042F480320260BFF34F8FBFF36F8F0091C4
:1031F00002B070470000000080B502F02DFF00F023
:1032000003F880BD0000000080B582B045F6F010E4
:10321000C2F2000090ED090A46F26C50C2F20100C1
:1032200090ED051A30EE410A8DED010A40F20400DE
:10323000C2F2000090ED000A9DED011A40F2C411A7
:10324000C2F2000191ED002A31EE421A20EE010A8D
:1032500040F2C011C2F2000181ED000A90ED010AB6
:10326000B5EE400AF1EE10FA75D0FFE740F62430D3
:10327000C2F201008079542859D1FFE745F6F010D9
:10328000C2F2000090ED090A46F28E50C2F201002F
:10329000B0F9000001EE100AB8EEC11AB4EEC10A8E
:1032A000F1EE10FA15DDFFE745F6F010C2F200006E
:1032B00090ED090A46F28E50C2F20100B0F900000A
:1032C00001EE100AB8EEC11A30EE410A8DED000A87
:1032D00014E046F28E50C2F20100B0F9000000EE98
:1032E000100AB8EEC00A45F6F010C2F2000090EDE8
:1032F000091A30EE410A8DED000AFFE79DED000A44
:1033000002F03EFF40F2040EC2F2000E9EED011AE2
:1033100020EE010A9DED011A40F2C01EC2F2000E1D
:103320009EED002A00EE012A8EED002A12E040F206
:10333000CC00C2F2000090ED010A9DED011A40F2AE
:10334000C010C2F2000090ED002A00EE012A80EDCC
:10335000002AFFE7FFE740F20400C2F2000090ED10
:10336000020AB5EE400AF1EE10FA25D0FFE740F26E
:103370000400C2F2000090ED020A9DED011A40F235
:10338000C810C2F2000090ED002A31EE021A40F29D
:10339000C410C2F2000090ED002A32EE022A31EE93
:1033A000421A40F2C010C2F2000090ED002A00EE76
:1033B000012A80ED002AFFE740F2C410C2F20000AB
:1033C000016840F2C812C2F2000211600199016066
:1033D00040F2C010C2F2000090ED000A45F6F01075
:1033E000C2F2000090ED041A31EE000A80ED040AEA
:1033F000416A816146F26C51C2F201014969C161C1
:1034000002B080BD0000000080B58AB04FF40040DB
:1034100002F0D6F848F2C020C4F20D00D0F800E067
:103420004EF4803EC0F800E0D0F800E02EF4003EFC
:10343000C0F800E043F20060C0F26E1002F0CCF879
:10344000002001F031FE01F073FE0120099002F02E
:10345000CFF84CF20000C4F20F00D0F800E07F215A
:1034600061F3070EC0F800E046F61840C8F200000D
:10347000099901F089FF43F61410C1F2004009993F
:1034800001F082FF0C20C4F2080001684FF0130E17
:103490006EF304010160FFE70020C4F20800006839
:1034A00000F00040B0F1004F01D0FFE7F4E742F236
:1034B0004810C8F2020001F0C3FD00F0C9FF48F255
:1034C0000000C4F20D000D21C0F270014FF0010E9A
:1034D00008907246CDF81CE002F046F848F27010F1
:1034E000C4F20D00016821F400410160016821F47B
:1034F0000001016048F27001C4F20D010A6842F453
:1035000000520A60069000F0BBFF48F2A000C4F22F
:103510000D00016841F48031016006990A6822F0CB
:1035200040420A60026842F40052026000F098FFD4
:103530000D21C0F2E0010898079A02F015F848F250
:10354000E000C4F20D000168079A62F30101016016
:10355000016841F400510160016821F00C01016033
:10356000016841F480110160016841F400110160BB
:1035700000F07EFF0D21C0F220010898079A01F0AB
:10358000F3FF48F22000C4F20D00016841F400513D
:1035900001604EF61420C0F200400021059101F0B8
:1035A00003FE4FF4887000F073FF4FF4847000F056
:1035B0006FFF40F2162000F06BFF4FF4067000F032
:1035C00067FF46F61400C8F200000321049101F0E1
:1035D000EBFD4EF21000C4F20000079901F0E4FD8B
:1035E00047F21820C8F20000049901F0CDFE43F61E
:1035F0001410C1F20040059901F0C6FE4FF61430D8
:10360000C8F20000059901F0CFFD46F61840C8F257
:103610000000059901F0B8FE4FF48A7000F038FF01
:103620004FF48B7000F034FF182000F031FF1A20A7
:1036300000F02EFF4FF4867000F02AFF4EF21C00BF
:10364000C8F20700079901F0AFFD42F21C60C8F212
:103650000000059901F098FE40F2026000F018FFAA
:103660004EF62430C8F20000079901F09DFD43F2A8
:103670001C00C8F20000059901F086FE40F20460CB
:1036800000F006FF4FF22400C8F20000079901F095
:103690008BFD43F21C10C8F20000059901F074FE86
:1036A00040F20A6000F0F4FE4FF21C70C8F2000015
:1036B000059901F079FD47F61C50C8F20000049905
:1036C00001F062FE40F2022000F0E2FE4EF63C30D5
:1036D000C8F20000079901F067FD46F63C10C8F2F9
:1036E0000000059901F050FE4FF4807000F0D0FE0C
:1036F0004FF4817000F0CCFE4FF4827000F0C8FEF1
:103700004FF4837000F0C4FE4FF61820C8F200009A
:10371000042101F049FD46F21840C8F200000221E0
:10372000039101F031FE162000F0B2FE47F624109E
:10373000C8F20000039901F037FD46F61860C8F2A0
:103740000000039901F020FE40F2125000F0A0FEAC
:103750004EF22860C8F20000049901F025FD4EF2F7
:103760002800C8F20700079901F01EFD46F61C204C
:10377000C8F20000059901F007FE40F2145000F075
:1037800087FE4EF22C60C8F20000049901F00CFD97
:103790004EF22C00C8F20700079901F005FD46F62D
:1037A0001C40C8F20000059901F0EEFD40F21650F1
:1037B00000F06EFE4FF22860C8F20000049901F09C
:1037C000F3FC4FF22800C8F20700079901F0ECFC67
:1037D00046F61C60C8F20000059901F0D5FD40F2E4
:1037E000062000F055FE4FF4027000F051FE40F24A
:1037F0000A2000F04DFE4FF23830C8F2070005995C
:1038000001F0D2FC43F23820C8F20000059901F023
:10381000BBFD0E2000F03CFE1220029000F038FEAE
:1038200040F2067000F034FE102000F031FE14204B
:1038300000F02EFE4FF4E16000F02AFE4EF2202050
:10384000C8F20700079901F0AFFC46F62000C8F265
:103850000000039901F098FD4FF4A36000F018FEFA
:103860001C2000F015FE0C2000F012FE4FF48C70AE
:1038700000F00EFE40F2023000F00AFE40F2063088
:1038800000F006FE40F21A5000F002FE40F20E6018
:1038900000F0FEFD4EF22400C8F20700059901F089
:1038A00083FC42F22460C8F20000059901F06CFD2F
:1038B00040F20A3000F0ECFD4EF63840C8F200004D
:1038C000079901F071FC4FF21870C8F200000499DA
:1038D00001F06AFC4EF63870C8F20000052101F0D4
:1038E00053FD40F20E5000F0D3FD4FF63010C8F2F9
:1038F0000000079901F058FC4FF23060C8F2000058
:103900000721019101F050FC47F23040C8F200005D
:10391000049901F039FD40F2025000F0B9FD4EF675
:103920003040C8F20000079901F03EFC4EF630101E
:10393000C8F20000019901F037FC46F23070C8F27D
:103940000000049901F020FD4FF4407000F0A0FD4C
:103950004EF62810C8F20000079901F025FC4FF63A
:103960002810C8F20000079901F01EFC47F2203031
:10397000C8F20000049901F007FD42F20C00C8F201
:103980000000059901F000FD48F26010C4F20D003E
:10399000016821F01F0101604CF26000C4F20F00C9
:1039A000016821F0700101600168079A62F3030168
:1039B0000160016821F4600101600168DDF808E040
:1039C0006EF314410160016821F4807101600168A7
:1039D00021F080010160016821F08071016040F2F6
:1039E000D800C2F2000044F20061C2F2C3310160AB
:1039F0000AB080BD0000000080B586B04EF61450BD
:103A0000CEF2000000688003002817D5FFE7BFF35F
:103A10004F8FBFF36F8F4EF61450CEF20000016847
:103A200021F4003101604EF65070CEF2000000210A
:103A30000160BFF34F8FBFF36F8FFFE74EF6145057
:103A4000CEF200000068C00300283DD5FFE74EF627
:103A50008450CEF2000000210160BFF34F8F4EF67C
:103A60001450CEF20000016821F480310160BFF3F0
:103A70004F8F4EF68050CEF20000006805900598FA
:103A8000C0F34E300490FFE70598C0F3C9000390DF
:103A9000FFE704980399890760F34D114EF674709F
:103AA000CEF2000001600398411E03910028F0D17E
:103AB000FFE70498411E04910028E5D1FFE7BFF31A
:103AC0004F8FBFF36F8FFFE7FFF766FB4EF69C5EED
:103AD000CEF2000E1020CCF20000CEF800004EF620
:103AE000A050CEF200003921C0F210310160112146
:103AF000C8F20001CEF800103B21C0F21031016085
:103B00001222C7F20002CEF800202B22C0F203627C
:103B100002601322CEF8002001601421CEF80010BC
:103B20001F21C0F2033101601521C2F20001CEF85D
:103B300000102521C0F2033101601622C2F22002DA
:103B4000CEF8002001601721C2F22801CEF8001043
:103B50000921C0F2033101601821C8F20001CEF83A
:103B600000103121C0F2033101601921C8F2E011C7
:103B7000CEF800102921C0F2083101600420FFF7BF
:103B80001FFB4EF61450CEF200000068C003002860
:103B900001D5FFE73CE04EF68450CEF20000002154
:103BA0000160BFF34F8F4EF68050CEF200000068E8
:103BB00002900298C0F34E300190FFE70298C0F3E4
:103BC000C9000090FFE701980099890760F34D1143
:103BD0004EF66070CEF2000001600098411E009128
:103BE0000028F0D1FFE70198411E01910028E5D19E
:103BF000FFE7BFF34F8F4EF61450CEF2000001687E
:103C000041F480310160BFF34F8FBFF36F8FFFE747
:103C10004EF61450CEF2000000688003002801D553
:103C2000FFE71AE0BFF34F8FBFF36F8F4EF6507070
:103C3000CEF2000000210160BFF34F8FBFF36F8F02
:103C40004EF61450CEF20000016841F400310160DC
:103C5000BFF34F8FBFF36F8FFFE706B080BD00004B
:103C600080B584B042F22460C8F2000000F0C0FDCC
:103C700000281DD1FFE70D20C0F2100000F0DCFE8F
:103C80004AF6AB2ECAF6AA2EA0FB0E0E4FEA9E0EE7
:103C90004EF22401C8F2070102900846CDF804E074
:103CA00000F0DAFC01300199B1FBF0F0039010E074
:103CB00000F0B6FD4EF2240EC8F2070E00907046DA
:103CC00000F0CAFC0130DDF800E0BEFBF0F003902C
:103CD000FFE7039804B080BD80B584B0FFF7C0FF54
:103CE0000390039B4FF4E13101200290029A03F00C
:103CF000A3F8019004B080BD82B000200190FFE7DE
:103D0000019877283DDCFFE700200090FFE700984E
:103D1000BB2831DCFFE746F24460C2F201000068D4
:103D20000199BC2201FB02000099405C45F6F011AC
:103D3000C2F2000191F8441088420CDDFFE70198BF
:103D400040F2CC11C2F20001BC2200FB021000992B
:103D5000FF2242540BE0019840F2CC11C2F2000164
:103D6000BC2200FB0210009900224254FFE7FFE74B
:103D7000009801300090CAE7FFE7019801300190F8
:103D8000BEE702B07047000080B586B001468DF8EE
:103D900017009DF817000028009110D1FFE746F2A8
:103DA0004460C2F201000068BC21782206F000FEE7
:103DB00045F6F011C2F2000181F84400FFE79DF8DA
:103DC0001700012814D1FFE746F24460C2F2010057
:103DD0000068BC21782204F01FFABCEEC00A10EE85
:103DE000100A45F6F011C2F2000181F84400FFE725
:103DF0009DF81700022867D1FFE746F24460C2F23F
:103E000001000068BC21782206F0D2FD8DF8160072
:103E100000200490FFE70498772842DCFFE70020A9
:103E20000390FFE70398BB2836DCFFE746F24460C7
:103E3000C2F2010000680499BC2201FB0200039950
:103E4000405C9DF81610884213DDFFE746F244609F
:103E5000C2F2010000680499BC2201FB0200039B2E
:103E6000C05C40F2CC1CC2F2000C01FB02C1C85481
:103E70000DE09DF816000A38049940F2CC12C2F207
:103E80000002BC2301FB0321039A8854FFE7FFE7EC
:103E9000039801300390C5E7FFE7049801300490D0
:103EA000B9E740F2CC10C2F20000BC21782206F043
:103EB0007FFD8DF80B009DF80B0045F6F011C2F266
:103EC000000181F84400FFE79DF81700032819D18D
:103ED000FFE740F64C50C2F20100019046F2446008
:103EE000C2F201000068019904F086F80198BC2133
:103EF000782206F05DFD45F6F011C2F2000181F86E
:103F00004400FFE706B080BDFFE7FEE700000000C9
:103F100080B582B046F65420C2F201004068002805
:103F200001D0FFE70BE042F60A20C8F2020042F699
:103F30005B21C8F2020140F649520AF055FD46F6EF
:103F40005420C2F20100416840F29410C2F2000015
:103F500000680022C4F21D0201901046019A9047A9
:103F600002B080BD0000000080B582B046F654204B
:103F7000C2F201008068002801D0FFE70BE042F6A2
:103F80002520C8F2020042F65B21C8F2020140F689
:103F900057520AF029FD46F65420C2F2010081680A
:103FA00040F29410C2F20000006844F20002C4F231
:103FB0001D0201901046019A904702B080BD00009A
:103FC00080B582B046F65420C2F20100C0680028D5
:103FD00001D0FFE70BE042F64020C8F2020042F6B3
:103FE0005B21C8F2020140F665520AF0FDFC46F67C
:103FF0005420C2F20100C16840F29410C2F20000E5
:10400000006848F20002C4F21D0201901046019AB5
:10401000904702B080BD000086B00A460346ADF866
:1040200016008DF81510BDF91600000A0490BDF8B1
:10403000160000F01F0003900498072801920093D7
:1040400001D8FFE70BE042F2D060C8F2020042F272
:10405000FB61C8F2020140F22D420AF0C5FC04984F
:104060004CF26801C4F20F0101EB8000029002984B
:104070000068039903228A4090439DF8152002FAB4
:1040800001F108430299086006B070470000000083
:1040900086B00A460346ADF816008DF81510BDF936
:1040A0001600000A0490BDF8160000F01F000390EF
:1040B000049807280192009301D8FFE70BE042F231
:1040C000D060C8F2020042F2FB61C8F2020140F285
:1040D0002D420AF089FC04984CF26801C4F20F01E9
:1040E00001EB8000029002980068039903228A4045
:1040F00090439DF8152002FA01F1084302990860E7
:1041000006B070470000000086B00A460346ADF8CE
:1041100016008DF81510BDF91600000A0490BDF8C0
:10412000160000F01F0003900498072801920093E6
:1041300001D8FFE70BE042F2D060C8F2020042F281
:10414000FB61C8F2020140F22D420AF04DFC0498D6
:104150004CF26801C4F20F0101EB8000029002985A
:104160000068039903228A4090439DF8152002FAC3
:1041700001F108430299086006B070470000000092
:1041800086B00A460346ADF816008DF81510BDF945
:104190001600000A0490BDF8160000F01F000390FE
:1041A000049807280192009301D8FFE70BE042F240
:1041B000D060C8F2020042F2FB61C8F2020140F294
:1041C0002D420AF011FC04984CF26801C4F20F0170
:1041D00001EB8000029002980068039903228A4054
:1041E00090439DF8152002FA01F1084302990860F6
:1041F00006B070470000000086B00A460346ADF8DE
:1042000016008DF81510BDF91600000A0490BDF8CF
:10421000160000F01F0003900498072801920093F5
:1042200001D8FFE70BE042F2D060C8F2020042F290
:10423000FB61C8F2020140F22D420AF0D5FB04985E
:104240004CF26801C4F20F0101EB80000290029869
:104250000068039903228A4090439DF8152002FAD2
:1042600001F108430299086006B0704700000000A1
:1042700086B00A460346ADF816008DF81510BDF954
:104280001600000A0490BDF8160000F01F0003900D
:10429000049807280192009301D8FFE70BE042F24F
:1042A000D060C8F2020042F2FB61C8F2020140F2A3
:1042B0002D420AF099FB04984CF26801C4F20F01F8
:1042C00001EB8000029002980068039903228A4063
:1042D00090439DF8152002FA01F108430299086005
:1042E00006B070470000000086B00A460346ADF8ED
:1042F00016008DF81510BDF91600000A0490BDF8DF
:10430000160000F01F000390049807280192009304
:1043100001D8FFE70BE042F2D060C8F2020042F29F
:10432000FB61C8F2020140F22D420AF05DFB0498E5
:104330004CF26801C4F20F0101EB80000290029878
:104340000068039903228A4090439DF8152002FAE1
:1043500001F108430299086006B0704700000000B0
:1043600086B00A460346ADF816008DF81510BDF963
:104370001600000A0490BDF8160000F01F0003901C
:10438000049807280192009301D8FFE70BE042F25E
:10439000D060C8F2020042F2FB61C8F2020140F2B2
:1043A0002D420AF021FB04984CF26801C4F20F017F
:1043B00001EB8000029002980068039903228A4072
:1043C00090439DF8152002FA01F108430299086014
:1043D00006B070470000000086B00A460346ADF8FC
:1043E00016008DF81510BDF91600000A0490BDF8EE
:1043F000160000F01F000390049807280192009314
:1044000001D8FFE70BE042F2D060C8F2020042F2AE
:10441000FB61C8F2020140F22D420AF0E5FA04986D
:104420004CF26801C4F20F0101EB80000290029887
:104430000068039903228A4090439DF8152002FAF0
:1044400001F108430299086006B0704700000000BF
:1044500048F27000C4F20D004FF4805101607047C3
:1044600048F2E000C4F20D004FF480510160704743
:1044700048F22000C4F20D000021016070470000E6
:1044800048F2A000C4F20D004FF480510160704763
:1044900080B582B00146ADF80600BDF906000022E5
:1044A00000911146FFF7B8FD02B080BD000000008A
:1044B00080B582B00146ADF80600BDF906000022C5
:1044C00000911146FFF798FE02B080BD0000000089
:1044D00080B582B00146ADF80600BDF906000022A5
:1044E00000911146FFF7C4FE02B080BD000000003D
:1044F00080B582B00146ADF80600BDF90600002285
:1045000000911146FFF7F0FE02B080BD00000000F0
:1045100080B582B00146ADF80600BDF90600002264
:1045200000911146FFF71CFF02B080BD00000000A3
:1045300080B582B00146ADF80600BDF90600032241
:1045400000911146FFF7A4FD02B080BD00000000FD
:1045500080B582B00146ADF80600BDF90600032221
:1045600000911146FFF7D0FD02B080BD00000000B1
:1045700080B582B00146ADF80600BDF90600032201
:1045800000911146FFF7FCFD02B080BD0000000065
:1045900080B582B00146ADF80600BDF906000322E1
:1045A00000911146FFF728FE02B080BD0000000018
:1045B00080B582B00146ADF80600BDF906000322C1
:1045C00000911146FFF754FE02B080BD00000000CC
:1045D00080B582B00146ADF80600BDF906000322A1
:1045E00000911146FFF780FE02B080BD0000000080
:1045F00080B582B00146ADF80600BDF90600032281
:1046000000911146FFF7ACFE02B080BD0000000033
:1046100080B582B00146ADF80600BDF90600032260
:1046200000911146FFF7D8FE02B080BD00000000E7
:1046300080B500F051F94CF2140EC4F20F0EDEF802
:1046400000E00EF4E05E012101EB9E21B0FBF1F0F1
:1046500080BD00000000000082B00146019001987A
:1046600040F6C072C0F2400262F31F200068019A57
:10467000C2F34C33C2F3042293401840D04000915F
:1046800002B070470000000080B584B001468DF88C
:104690000F009DF80F00024617280191009200F2CA
:1046A0008C800099DFE801F00C0C1014181C2024F9
:1046B0002930353A3F444B52575C61666D747B82BA
:1046C000FFF7B6FF02907BE000F0DEFB029077E0A0
:1046D00000F07AF8029073E000F0DAF802906FE0F0
:1046E00000F0BAF802906BE000F0CAFB029067E0BD
:1046F0000D2000F0A1F9029062E00D20C0F2100040
:1047000000F09AF902905BE0002000F045FC029076
:1047100056E0012000F040FC029051E0022000F041
:104720003BFC02904CE0032000F036FC029047E096
:104730000D20C0F2200000F07FF9029040E00D2033
:10474000C0F2300000F078F9029039E0002000F06B
:10475000CFFB029034E0012000F0CAFB02902FE072
:10476000022000F0C5FB02902AE0032000F0C0FB0D
:10477000029025E00D20C0F2E00000F05DF902900B
:104780001EE01420C0F2E00000F056F9029017E09D
:104790001520C0F2E00000F04FF9029010E00D206B
:1047A000C0F2700000F048F9029009E00D20C0F25C
:1047B000A00000F041F9029002E000200290FFE723
:1047C000029804B080BD000080B5FFF731FF4CF2C5
:1047D000140EC4F20F0EDEF800E00EF4407E01214C
:1047E00001EB1E21B0FBF1F080BD000000000000D5
:1047F00082B001460190019840F6C072C0F24002BA
:1048000062F31F200068019AC2F34C33C2F3042202
:1048100093401840D040009102B070470000000063
:1048200081B048F27020C4F20D000068C006002874
:1048300006D5FFE743F20060C0F26E10009006E07C
:1048400040F64850C2F2010000680090FFE700986F
:1048500001B070470000000081B048F27020C4F23F
:104860000D000068C006002806D5FFE743F200608F
:10487000C0F26E10009006E040F64850C2F201000F
:1048800000680090FFE7009801B07047000000004A
:1048900080B582B04CF21C00C4F20F0000684006E4
:1048A000002804D5FFE7FFF7D7FF019003E0FFF7EB
:1048B0008BFF0190FFE74CF21C00C4F20F00006870
:1048C00000F03F0001300199B1FBF0F00190019838
:1048D00002B080BD0000000080B584B04CF214002E
:1048E000C4F20F0000688001002840D5FFE74CF2B9
:1048F0001800C4F20F00006800F440500146002880
:1049000002910FD0FFE70298B0F5805F11D0FFE76A
:104910000298B0F5005F10D0FFE70298B0F5405F55
:1049200012D012E00D20C0F2100000F085F80390C4
:104930000EE0FFF791FF03900AE00D20C0F2300077
:1049400000F07AF8039003E0FFE700200390FFE710
:104950004CF21400C4F20F00006800F06050012116
:1049600001EBD0600399B1FBF0F0039040E04CF212
:104970001800C4F20F00006800F44020014600282F
:1049800001910FD0FFE70198B0F5802F11D0FFE71C
:104990000198B0F5002F11D0FFE70198B0F5402F36
:1049A00011D021E00D20C0F2300000F045F8039056
:1049B0001DE0022000F09CFA039018E0002000F0B7
:1049C00097FA039013E00D2000F036F84CF2100E29
:1049D000C4F20F0EDEF800E00EF0070E0EF1010E2D
:1049E000B0FBFEF0039002E000200390FFE7FFE73A
:1049F000039804B080BD000080B586B00A46034627
:104A0000059004910598BDF812106FF31F314058BE
:104A100080B20021B1EB903F0392029304D1FFE7F3
:104A2000FFF71AFF019002E000200190FFE70198D4
:104A300006B080BD0000000080B592B00146109025
:104A400042F25010C8F2020002684368D0F808C071
:104A5000C0680B90CDF828C009930892109848F2CE
:104A60000002C4F20D0207901046079A0691114603
:104A700000F07EFB002803D1FFE700201190FAE14F
:104A8000109948F20000C4F20D000590FFF7B4FF42
:104A90000F901099059800F057FB002803D0FFE70E
:104AA0000F981190E7E110980D2804903DD0FFE792
:104AB0000D20C0F21000049981427ED0FFE70D2046
:104AC000C0F220000499814200F0C081FFE70D2070
:104AD000C0F230000499814233D0FFE70D20C0F2CC
:104AE00070000499814277D0FFE70D20C0F2A0004A
:104AF0000499814200F0FF80FFE70D20C0F2E00042
:104B00000499814200F08081FFE71420C0F2E000A8
:104B10000499814200F08681FFE71520C0F2E00091
:104B20000499814200F08C819FE10F9848F20001C6
:104B3000C4F20D01096801F07F01484340080F905D
:104B400096E19DED0F0AB8EE401B48F25000C4F20A
:104B50000D0090ED000AB8EE402B21EE021B8DED0A
:104B60000C1B48F26000C4F20D0090ED000AB8EE94
:104B7000401B9DED0C2B82EE011B8DED0C1B48F2B2
:104B80003000C4F20D000068C007002805D0FFE720
:104B90000F98162148430F9005E00F9800EB800016
:104BA00080000F90FFE79DED0C0BBCEEC01B11EEDB
:104BB000100A0F9908440F905AE10F9848F210011B
:104BC000C4F20D01096889071422002948BF162282
:104BD00002FB00F00F904BE148F27000C4F20D00B0
:104BE000016801F07F010E919DED0F0AB8EE401BA8
:104BF00048F28001C4F20D0191ED000AB8EE402B9D
:104C000021EE021B8DED0C1B48F29001C4F20D0148
:104C100091ED000AB8EE401B9DED0C2B82EE011BBE
:104C20008DED0C1B0F990E9A9DED0C1BBCEEC10B6C
:104C300010EE103A01FB02310F91006800F4C01031
:104C40000146002803910AD0FFE70398B0F5002F32
:104C500009D0FFE70398B0F5801F08D008E00F984F
:104C600080080F9010E00F9840080F900CE00BE0C8
:104C700042F6ED00C8F2020042F6AD01C8F20201B0
:104C800040F2C53209F0B0FE48F27010C4F20D00D7
:104C9000006848F20001C0F2800108400146002887
:104CA00002911AD0FFE70298B0F5004F11D0FFE74C
:104CB0000298B0F5000F10D0FFE748F20000C0F2F4
:104CC00080000299814209D1FFE70F9880080F9078
:104CD00010E00F9840080F900CE00BE042F6ED005A
:104CE000C8F2020042F6AD01C8F2020140F2D93228
:104CF00009F07AFEBCE048F2A000C4F20D000168A1
:104D000001F07F010E919DED0F0AB8EE401B48F2B5
:104D1000B001C4F20D0191ED000AB8EE402B21EE76
:104D2000021B8DED0C1B48F2C001C4F20D0191ED88
:104D3000000AB8EE401B9DED0C2B82EE011B8DEDA1
:104D40000C1B0F990E9A9DED0C1BBCEEC10B10EEC7
:104D5000103A01FB02310F91006800F4C0100146C7
:104D6000002801910AD0FFE70198B0F5002F09D083
:104D7000FFE70198B0F5801F08D008E00F98800881
:104D80000F9010E00F9840080F900CE00BE042F6F7
:104D9000ED00C8F2020042F6AD01C8F2020140F295
:104DA000064209F021FE48F27010C4F20D000068BE
:104DB00000F040400146B0F1004F009116D0FFE7EF
:104DC0000098B0F1404F09D0FFE7009800280DD0BF
:104DD000FFE70098B0F1804F04D008E00F988008FA
:104DE0000F9010E00F9840080F900CE00BE042F697
:104DF000ED00C8F2020042F6AD01C8F2020140F235
:104E00001A4209F0F1FD33E048F2E000C4F20D006F
:104E1000006800F003000E900E9808A951F82000D9
:104E20000F9025E048F2E000C4F20D000068C0F3E6
:104E300081000E900E9808A951F820000F9017E0FD
:104E400047F64000C0F27D100F9011E00F9848F235
:104E50002001C4F20D01096889071422002948BF06
:104E6000162202FB00F00F9002E000200F90FFE7F7
:104E70000F981190FFE7119812B080BD000000005C
:104E80004FF400407047000080B582B04CF214002F
:104E9000C4F20F0000684006002814D5FFE74CF26A
:104EA0001400C4F20F0000680006002805D5FFE7D3
:104EB000012000F071F8019004E0022000F018F8E1
:104EC0000190FFE703E0FFF707FD0190FFE74CF2D9
:104ED0001400C4F20F00006800F4E020012101EB8F
:104EE00010400199B1FBF0F00190019802B080BD33
:104EF00080B584B001468DF80F000D20C0F230005F
:104F00000191FFF799FD02909DF80F0001460328DB
:104F1000009134D80099DFE801F0020E1A2648F219
:104F20000010C4F20D00006800F03F000299B1FBD0
:104F3000F0F0029026E048F20010C4F20D00006884
:104F4000C0F305200299B1FBF0F002901AE048F29C
:104F50000010C4F20D000068C0F305400299B1FBD7
:104F6000F0F002900EE048F20010C4F20D0000686C
:104F7000C0F305600299B1FBF0F0029002E000205E
:104F80000290FFE7029800EBC000400002900298F8
:104F900004B080BD0000000080B584B001468DF8EB
:104FA0000F000D20C0F210000191FFF745FD0290A7
:104FB0009DF80F0001460328009134D80099DFE8DE
:104FC00001F0020E1A2648F2F000C4F20D0000684B
:104FD00000F03F000299B1FBF0F0029026E048F2A9
:104FE000F000C4F20D000068C0F305200299B1FB87
:104FF000F0F002901AE048F2F000C4F20D000068F0
:10500000C0F305400299B1FBF0F002900EE048F2C7
:10501000F000C4F20D000068C0F305600299B1FB16
:10502000F0F0029002E000200290FFE7029800EB0F
:10503000C00040000290029804B080BD0000000053
:1050400082B00146019048F20000C4F20D000268EF
:1050500022F4E032019B1B799B039BB21A4402F5B8
:1050600080320260026843F27F039A43019B1B680F
:1050700003F07F031A4402F5005202600091FFE73B
:1050800048F20000C4F20D000068C00F002801D1F2
:10509000FFE7F5E748F20000C4F20D00016821F4D3
:1050A0008031016002B0704782B001468DF8070080
:1050B0009DF80700C0070028009101D1FFE70AE032
:1050C00042F6DE00C8F2020042F6AD01C8F202016B
:1050D000A22209F089FC48F25810C4F20D004FF0EA
:1050E00080410160FFE748F27020C4F20D000068C3
:1050F000C003002801D4FFE7F5E748F25410C4F2DA
:105100000D004FF480310160FFE748F25010C4F207
:105110000D0000680004002801D4FFE7F5E748F21D
:105120005810C4F20D004FF48031016002B0704796
:1051300048F27020C4F20D00016841F001010160E5
:10514000704700000000000084B00A460346039048
:1051500002910398BDF80A106FF31F314058C0F355
:1051600000400192009304B070470000000000006E
:1051700084B00A460346039002910398BDF80A10D2
:105180006FF31F314058029901F01F014FF0010CDD
:105190000CFA01F10840002818BF01200192009389
:1051A00004B0704700000000B0B586B00A46034660
:1051B000059004910598800E0390059840F6C07103
:1051C000C0F2400161F31F200068DDF814C0CCF389
:1051D0004C3ECCF304240EFA04FE20EA0E00049D9B
:1051E00005FA04F40EEA040E40EA0E0061F31F2CE7
:1051F000CCF80000039820280292019301D8FFE721
:105200000BE042F2DD60C8F2020042F2FB61C8F23C
:10521000020140F20B4209F0E7FB039820280FD06F
:10522000FFE7FFE74CF24800C4F20F000068039963
:10523000012202FA01F1084201D0FFE7F2E7FFE79D
:1052400006B0B0BD00000000B0B586B00A46034607
:10525000059004910598800E0390059840F6C07162
:10526000C0F2400161F31F200068DDF814C0CCF3E8
:105270004C3ECCF304240EFA04FE20EA0E00049DFA
:1052800005FA04F40EEA040E40EA0E0061F31F2C46
:10529000CCF80000039820280292019301D8FFE780
:1052A0000BE042F2DD60C8F2020042F2FB61C8F29C
:1052B000020140F20B4209F097FB039820280FD01F
:1052C000FFE7FFE74CF24800C4F20F0000680399C3
:1052D000012202FA01F1084201D0FFE7F2E7FFE7FD
:1052E00006B0B0BD00000000B0B586B00A46034667
:1052F000059004910598800E0390059840F6C071C2
:10530000C0F2400161F31F200068DDF814C0CCF347
:105310004C3ECCF304240EFA04FE20EA0E00049D59
:1053200005FA04F40EEA040E40EA0E0061F31F2CA5
:10533000CCF80000039820280292019301D8FFE7DF
:105340000BE042F2DD60C8F2020042F2FB61C8F2FB
:10535000020140F20B4209F047FB039820280FD0CE
:10536000FFE7FFE74CF24800C4F20F000068039922
:10537000012202FA01F1084201D0FFE7F2E7FFE75C
:1053800006B0B0BD00000000B0B586B00A460346C6
:10539000059004910598800E0390059840F6C07121
:1053A000C0F2400161F31F200068DDF814C0CCF3A7
:1053B0004C3ECCF304240EFA04FE20EA0E00049DB9
:1053C00005FA04F40EEA040E40EA0E0061F31F2C05
:1053D000CCF80000039820280292019301D8FFE73F
:1053E0000BE042F2DD60C8F2020042F2FB61C8F25B
:1053F000020140F2E63209F0F7FA039820280FD0B4
:10540000FFE7FFE74CF24800C4F20F000068039981
:10541000012202FA01F1084201D0FFE7F2E7FFE7BB
:1054200006B0B0BD00000000B0B586B00A46034625
:10543000059004910598800E0390059840F6C07180
:10544000C0F2400161F31F200068DDF814C0CCF306
:105450004C3ECCF304240EFA04FE20EA0E00049D18
:1054600005FA04F40EEA040E40EA0E0061F31F2C64
:10547000CCF80000039820280292019301D8FFE79E
:105480000BE042F2DD60C8F2020042F2FB61C8F2BA
:10549000020140F2E63209F0A7FA039820280FD063
:1054A000FFE7FFE74CF24800C4F20F0000680399E1
:1054B000012202FA01F1084201D0FFE7F2E7FFE71B
:1054C00006B0B0BD00000000B0B586B00A46034685
:1054D000059004910598800E0390059840F6C071E0
:1054E000C0F2400161F31F200068DDF814C0CCF366
:1054F0004C3ECCF304240EFA04FE20EA0E00049D78
:1055000005FA04F40EEA040E40EA0E0061F31F2CC3
:10551000CCF80000039820280292019301D8FFE7FD
:105520000BE042F2DD60C8F2020042F2FB61C8F219
:10553000020140F2E63209F057FA039820280FD012
:10554000FFE7FFE74CF24800C4F20F000068039940
:10555000012202FA01F1084201D0FFE7F2E7FFE77A
:1055600006B0B0BD0000000080B586B013468C4682
:105570008646059004918DF80F209DF80F00C00716
:1055800000280293CDF804C0CDF800E00AD0FFE770
:105590000598BDF812106FF31F3108444FF48031A5
:1055A000416009E00598BDF812106FF31F310844FF
:1055B0004FF480318160FFE706B080BD000000003D
:1055C00082B001460190019840F61852C2F20102E1
:1055D0001060009102B0704782B0014601900198BE
:1055E00040F64852C2F201021060009102B07047CA
:1055F00082B001468DF807009DF807000028009151
:1056000007D1FFE748F27420C4F20D0010210160B9
:1056100006E048F27820C4F20D0010210160FFE797
:1056200002B070470000000086B00A4603460590AD
:105630008DF81310002002900598006803900398DD
:1056400020F48070059908609DF81300C0070028B9
:105650000192009305D0FFE7029840F020000290ED
:10566000FFE79DF813008007002805D5FFE70298A3
:1056700040F040000290FFE7039820F48070029908
:10568000084305990860FFE70598006802990842F9
:1056900001D0FFE7F8E703980599086006B0704766
:1056A00080B582B046F62420C2F20100006846F6BA
:1056B0002021C2F2010109684CF20002C4F22B025F
:1056C00001901046019A904702B080BD0000000092
:1056D00080B586B013468C46864605908DF813102B
:1056E0008DF81220002003909DF81300C0070028B9
:1056F0000293CDF804C0CDF800E005D0FFE7039891
:1057000040F480500390FFE79DF8130080070028C5
:1057100005D5FFE7039840F400600390FFE79DF88C
:105720001200C007002806D0FFE7039805998A6891
:105730001043886006E0039805998A6822EA000011
:105740008860FFE706B080BD84B00A460346039038
:105750000291BDF80A000399D1F800C04CEA00405C
:1057600008609DF808000399D1F808C040EA0C00D1
:1057700088609DF8090000020399D1F848C04CEAFE
:10578000901088640192009304B0704700000000FC
:1057900080B586B00146059005980028049101D097
:1057A000FFE70BE042F63440C8F2020042F6151162
:1057B000C8F2020140F2791209F016F905980021A9
:1057C000102203910292FDF7B4F905994FF4A072EB
:1057D0000A800599F0224A80059940F602024A6043
:1057E000059902220A7205994FF420724A8105999F
:1057F000029A8A810599DDF80CE081F80EE005999E
:105800000123CB73019006B080BD000000000000B2
:1058100084B001460390002002900191FFE70298B6
:10582000002811D1FFE7029842F2A851C8F2020104
:1058300051F820000399884201D1FFE704E0FFE717
:10584000029801300290EAE70298002801D1FFE7B0
:105850000AE042F6F300C8F2020042F61511C8F25F
:105860000201862209F0C0F8029804B070470000D7
:1058700080B518F08DFBFFF713FFBFF34F8F18F0C3
:10588000C3FB80BD0000000080B588B00A46034617
:1058900006900591059800280192009301D0FFE73A
:1058A0000AE042F63440C8F2020042F61511C8F28E
:1058B0000201CC2209F098F805980188007A484343
:1058C000039003980599498908434007002803D0AD
:1058D000FFE7042007908CE00698FFF799FF0290FD
:1058E000029842F2AC5EC8F2020E3EF91000FEF7DA
:1058F0001FFE069800F0B0F80598B0F80CE040687C
:1059000040EA0E0040F4807004900598C07BC00708
:10591000002805D0FFE7049840F080400490FFE79E
:105920000498069908600598007A04280DD1FFE7CD
:105930000698816841F004018160059801884088DB
:1059400040EA01400699486307E0039805994988B1
:1059500041EA004006994863FFE7059840890399AA
:10596000401AC008069908630698816841F0010151
:1059700081609DF80C00400600280FD1FFE70698D3
:105980004FF0404141604CF20800C4F22B00006827
:10599000022161F306100699886023E09DF80C004F
:1059A000800600280FD1FFE706984FF000414160C4
:1059B0004CF20800C4F22B000068012161F30610CC
:1059C000069988600DE006984FF0804141604CF2E6
:1059D0000800C4F22B00006820F07000069988606F
:1059E000FFE7FFE70698012100F006F80020079086
:1059F000FFE7079808B080BD85B00A4603460490CB
:105A00008DF80F10002002909DF80F00C0070028AD
:105A10000192009305D0FFE7029840F48040029085
:105A2000FFE79DF80F008007002805D5FFE70298E3
:105A300040F400500290FFE7029804998A681043EE
:105A40008860FFE7049880680299084201D0FFE768
:105A5000F8E705B07047000080B584B001460390B8
:105A60000398019100F06CF803980021816003987D
:105A7000816841F400418160FFE703988068000479
:105A8000002801D5FFE7F8E7039803210091FFF70D
:105A9000CBFD03980099FFF7AFFF03988069029050
:105AA000029803998861039840F60001C4F200014E
:105AB00001600398002141600398816003984FF4CE
:105AC000504EC0F848E0039801630398416304B066
:105AD00080BD00000000000080B586B013468C46F3
:105AE000864605908DF8131003929DF81300002848
:105AF0000293CDF804C0CDF800E004D0FFE703988E
:105B00000599C86203E0039805998862FFE706B02B
:105B100080BD00000000000080B582B00146019009
:105B20000198012200911146FFF7D2FD0198816C86
:105B300041F00041816402B080BD0000000000001F
:105B400080B582B0014601900198826C22F000423B
:105B50008264019801220023009111461A46FFF742
:105B6000B7FD02B080BD0000B0B58CB09C46964633
:105B70000C4605460B900A91099208930A98002852
:105B8000CDF818C0CDF814E00494039501D0FFE7D8
:105B90000BE042F62540C8F2020042F61511C8F2A9
:105BA00002014FF40C7208F01FFF0A9800211C221A
:105BB0000291FCF7BEFF09990A9A516108990A9A65
:105BC00091610B9901900846FFF722FE07900A9811
:105BD000079946F62022C2F2010242F8210046F659
:105BE0002420C2F2010043F2D971C8F20001016021
:105BF000079842F2AE51C8F2020131F9100001F0EB
:105C0000BFFC0299009008460CB0B0BD0000000037
:105C100080B584B00A460346039002910298807BC7
:105C20000299497B0192009300F03AF804B080BDDC
:105C300080B588B013468C4686460690059104923E
:105C40000598007B0599C97B88420293CDF804C072
:105C5000CDF800E004D1FFE740F65530079019E099
:105C6000069800680390039820F4C0100699086015
:105C70000598017B50F82100049908600598007B85
:105C800000F0BEF805990873039806990860002093
:105C90000790FFE7079808B080BD000000000000F3
:105CA00085B00A4603460390029102980399884200
:105CB0000192009305D3FFE702980399401A0490DC
:105CC00005E0039803300299401A0490FFE7049816
:105CD00005B070470000000080B588B00A46034652
:105CE0000790069107988069049004980799886145
:105CF000049800F4C010B0F5C01F0392029336D18F
:105D0000FFE70798FFF71CFF0698007C012826DBB9
:105D1000FFE70698C07B05900698059950F821008A
:105D2000079988620698007C022813D1FFE705983E
:105D300000F066F805900698DDF814E050F82E00A3
:105D4000DDF81CE0CEF82C0006984FF0000E80F82D
:105D500011E003E0069801214174FFE7FFE707988F
:105D60000121FFF749FE0798FFF7D6FE46E09DF8B0
:105D7000120010F0180F3FD0FFE70698C07B00F02C
:105D80003FF8DDF818E08EF80F00069890F810E064
:105D9000AEF1010E80F810E00698406900280FD09F
:105DA000FFE7069807994269836940F6573C0190DE
:105DB0000846019900926246DDF800C0E047FFE71F
:105DC0000698007C002809D1FFE70798FFF7B8FE86
:105DD00006984FF0000E80F813E00CE00798069943
:105DE000FFF716FF002805D0FFE70798069900F097
:105DF0001BF8FFE7FFE700E0FFE7FFE708B080BD23
:105E000083B0014602900298013001900198032866
:105E1000009103D3FFE700200190FFE7019803B052
:105E2000704700000000000080B584B00A460346B9
:105E30000390029103980299497CDDF808C09CF810
:105E40000EE05CF82EC0019262460093FFF744FE1C
:105E50000298807BFFF7D4FF029988730298017C37
:105E6000013101740298417C81F00101417404B058
:105E700080BD00000000000080B588B00A460346DF
:105E800006900591059800280392029301D0FFE740
:105E90000BE042F62540C8F2020042F61511C8F2A6
:105EA000020140F2572208F09FFD05990698FFF77E
:105EB000AFFE04900498012804D8FFE740F6543060
:105EC00007902BE00598002141740598017406980D
:105ED000806C40F0300020F44020069A90640698D0
:105EE000059A01911146FFF79FFF06980599FFF764
:105EF0009BFF069801210091FFF77EFD0598009910
:105F000081740598C17406984FF4C011FFF71CFC0A
:105F10000698FFF701FE01980790FFE7079808B081
:105F200080BD00000000000080B58AB013468C469A
:105F300086460890079106920798007B0799497B4F
:105F40000493CDF80CC0CDF808E0FFF7A9FE0228B5
:105F500004D1FFE740F65630099044E00898006805
:105F60000590059820F4C0100899086006980799D4
:105F70004A7B41F822000798407BFFF741FF0799D1
:105F800048730598089908600798807CC007002826
:105F900026D0FFE70798C07CC00700281FD1FFE785
:105FA00008980799FFF734FE022818D3FFE70798EF
:105FB0000121C1740798002242740898079A019140
:105FC0001146FFF731FF08980799FFF72DFF089852
:105FD0000199FFF711FD0898FFF79EFDFFE7FFE726
:105FE00000200990FFE709980AB080BD000000007A
:105FF00080B5A8B045F6F010C2F20000462101704D
:106000008170017100228260C2600261026242629C
:1060100002648262C2620263C263826380F84410D7
:10602000826441F6A871C8F202016846A022FCF71A
:1060300063FD28B080BD000080B5FFF7D9FF07F0F1
:10604000B3FE40F6243EC2F2010E9EF80700FDF7B3
:106050009BFE80BD0000000080B582B00AF060FAAF
:106060000AF08AFA49F69A1EC3F6996ECDF804E052
:1060700046F2845EC2F2010EBEF900E000EE10EAC4
:10608000B8EEC00A9DED011A20EE010A9FED3B2AF1
:1060900080EE020A46F26C5EC2F2010E9EED003AFC
:1060A000B7EE004A34EE411A03EE010A8EED000A03
:1060B00046F28650C2F20100B0F9000000EE100A6C
:1060C000B8EEC00A9DED011A20EE010A80EE020A28
:1060D0009EED013A34EE411A03EE010A8EED010AFB
:1060E00046F28850C2F20100B0F9000000EE100A3A
:1060F000B8EEC00A9DED011A20EE010A80EE020AF8
:106100009EED022A34EE411A02EE010A8EED020AD9
:1061100046F28A50C2F20100B0F9000000EE100A07
:10612000B8EEC00A45F64820C2F2000090ED001A11
:1061300030EE410A8EED030A46F28C51C2F20101A3
:10614000B1F9001000EE101AB8EEC00A90ED011A75
:1061500030EE410A8EED040A46F28E51C2F2010180
:10616000B1F9001000EE101AB8EEC00A90ED021A54
:1061700030EE410A8EED050A02B080BD0000804578
:1061800083B0B0EE401A8DED010A9DED010A40F298
:106190001400C2F2000090ED002AB4EEC20AF1EE43
:1061A00010FA8DED001A04DCFFE74FF07E500290EC
:1061B0002FE09DED010A40F21000C2F2000090EDC8
:1061C000001A40F21400C2F2000090ED002A31EEF5
:1061D000021AB4EEC10AF1EE10FA03DDFFE7002067
:1061E000029016E040F21000C2F2000090ED000AAA
:1061F00040F21400C2F2000090ED001A30EE011AD5
:106200009DED012A31EE421A81EE000A8DED020A5F
:10621000FFE79DED020A03B0704700000000000098
:1062200080B58EB000200B9077200C90FFE70C9883
:10623000012842DBFFE70C9840F2CC11C2F20001CA
:10624000BC2200FB0210059001200D90FFE70D9885
:10625000BA2826DCFFE705980D99405CFF281BD182
:10626000FFE705980D99084410F8010C002813D198
:10627000FFE70D9840F6A031C2F2010108700C98BA
:10628000487001200B9040F2A010C2F200000921DA
:106290001BF0E6F9029004E0FFE70D9801300D9045
:1062A000D5E70B98012803D1FFE705F0F1FE04E0E4
:1062B000FFE70C9801380C90B9E70020049040F6F5
:1062C000A030C2F2010040780C90FFE70C98012842
:1062D0004ADBFFE70C9840F2CC11C2F20001BC226D
:1062E00000FB0210059040F6A030C2F201000078D9
:1062F0000D90FFE70D9800282CDBFFE705980D991E
:10630000405CFF2821D1FFE705980D99084410F85B
:10631000010C002819D1FFE705980D99084410F8E1
:10632000020C002811D1FFE70D98049945F654227C
:10633000C2F2000202F811000C98049902EB41012C
:10634000487004980130049004E0FFE70D9801388C
:106350000D90CFE70498152801DBFFE704E0FFE785
:106360000C9801380C90B1E70020039040F6A03063
:10637000C2F2010040780C90FFE70C98012848DB3E
:10638000FFE70C9840F2CC11C2F20001BC2200FBE6
:106390000210059040F6A030C2F2010000780D9086
:1063A000FFE70D98BB282ADCFFE705980D99405CB4
:1063B000FF281FD1FFE705980D9908444078002871
:1063C00018D1FFE705980D9908448078002811D16D
:1063D000FFE70D98039940F6EC22C2F2010202F8A1
:1063E00011000C98039902EB4101487003980130A9
:1063F000039004E0FFE70D9801300D90D1E703987A
:10640000152801DBFFE704E0FFE70C9801380C904A
:10641000B3E740F6A030C2F201000178427845F6B9
:106420005423C2F2000393F814C05B7DD21A00EE2D
:10643000102AB8EEC00BA1EB0C0101EE101AB8EE59
:10644000C11B01901CF0D4FC8DED080B0198017864
:10645000427840F6EC23C2F2010393F814C05B7D4E
:10646000D21A02EE102AB8EEC20BACEB010102EE1A
:10647000101AB8EEC21B1CF0BBFC8DED060B9DED97
:10648000080B9DED061BB4EEC10BF1EE10FA09DD11
:10649000FFE79DED060B45F6F010C2F2000080ED1F
:1064A0000E0B08E09DED080B45F6F010C2F200005F
:1064B00080ED0E0BFFE70EB080BD00000000000075
:1064C000B0B5A2B09C4696460C46054620901F915A
:1064D0001E921D9300200B9020990A910A994A1C44
:1064E0000A9208701F9890ED000B8DED100B9DED3A
:1064F000100BB5EE400BF1EE10FACDF824C0CDF83C
:1065000020E00794069509D1FFE70A983021017031
:106510000B9801300B900B98219019E19DED100B19
:106520000CA81CF049FD8DED0E0B00201990FFE723
:1065300019981D9988420FD2FFE79DED1E0AB8EE0B
:10654000C01B9DED0E2B22EE011B8DED0E1BFFE7F8
:10655000199801301990EBE79DED100BB5EEC00BCB
:10656000F1EE10FA28DBFFE79DED0E0BB6EE001BF7
:1065700030EE010B8DED160B9DED160B9DED1D2ADA
:10658000B8EE421BB2EE043B8DED040BB0EE430BB4
:106590001CF072FD9DED041BB4EEC01BF1EE10FA71
:1065A00009DBFFE79DED0C0BB7EE001B30EE010B96
:1065B0008DED0C0BFFE729E09DED0E0BBEEE001BF1
:1065C00030EE010B8DED160B9DED160B9DED1D2A8A
:1065D000B8EE421BB2EE043B8DED020BB0EE430B66
:1065E0001CF04AFDB1EE400B9DED021BB4EEC01B4A
:1065F000F1EE10FA09DCFFE79DED0C0BBFEE001B7E
:1066000030EE010B8DED0C0BFFE7FFE7002019903A
:10661000FFE719981D99884250D2FFE79DED160BB0
:106620009DED1E1AB8EEC12B80EE020B8DED120B04
:106630009DED160B9DED122B51EC120B8DED000B09
:10664000FCF7D8FADDF878E04FEAEE72A0FB0E3CDA
:1066500000FB02C001FB0E011846FCF7B7FA41EC43
:10666000100B9DED002B32EE400B8DED140B9DEDCC
:10667000140BBDEEC01B8DED1A1A1A98B0F1FF3F36
:1066800007DCFFE71A9818901898C04331301A9029
:1066900003E01A9830301A90FFE79DED120B8DED54
:1066A000160B1A980A994A1C0A9208700B98013026
:1066B0000B90FFE7199801301990AAE70A98411C3E
:1066C0000A912E2101700B9801300B909DED0C0B5F
:1066D000BDEEC01B8DED1C1A1C98002809D1FFE7E8
:1066E0000A98411C0A91302101700B9801300B90DF
:1066F0002BE0FFE71C98002826D0FFE71C981E9986
:1067000090FBF1F01B901C981B991E9A01FB120044
:106710001A901A98B0F1FF3F07DCFFE71A9818901B
:106720001898C04331301A9003E01A9830301A900C
:10673000FFE71B981C901A980A994A1C0A92087045
:106740000B9801300B90D5E7FFE70B982190FFE7FE
:10675000219822B0B0BD000070B59AB0DDF878C0C5
:106760009E4614460D4606461890179116921593AC
:106770008DF853C0002007901899069106994A1C7D
:106780000692087016980028CDF814E0049403953A
:10679000029660D0FFE71798016840681390129145
:1067A000129813990843002809D1FFE70698302171
:1067B000017007980130079007981990B9E0FFE73A
:1067C000129813990843002844D0FFE712981399B0
:1067D000159AD317FCF75FF911911090129813993D
:1067E000109A119BDDF854E04FEAEE7CA2FB0E45B7
:1067F00002FB0C5203FB0E22001B61EB02010E9008
:106800000F910F98B0F1FF3F0EDCFFE70E980F9944
:106810000991089008980999C943C043313041F162
:1068200000010E900F9107E00E980F99303041F162
:1068300000010E900F91FFE710981199139112909B
:106840009DF8380006994A1C069208700798013096
:106850000790B5E76AE01798016840680D900C91C1
:106860000C980D990843002809D1FFE706983021BC
:1068700001700798013007900798199059E0FFE7D9
:106880000C980D99084300284FD0FFE70C980D99FC
:10689000159AD317FCF7CEF80B910A900C980D9926
:1068A0000A9A0B9BDDF854E04FEAEE7CA2FB0E4502
:1068B00002FB0C5203FB0E22001B61EB020108904D
:1068C000099108980999D0F109004FF0000272EB84
:1068D00001010190009108D3FFE708980999303031
:1068E00041F100010890099111E0089809999DF87B
:1068F0005320D2076123002A18BF4123C01841F159
:1069000000010A3861F1000108900991FFE70A9837
:106910000B990D910C909DF8200006994A1C069247
:106920000870079801300790AAE7FFE707981990C9
:10693000FFE719981AB070BD80B548F20000C4F2A4
:106940000E00002100F020FC4007002808D5FFE7DA
:1069500046F66810C2F20100006800F055FCFFE73F
:1069600048F20000C4F20E00102100F00DFC4007B8
:10697000002808D5FFE746F66810C2F20100006C57
:1069800000F042FCFFE780BD80B548F20000C4F291
:106990000E000A2100F0F8FB4007002808D5FFE7A9
:1069A00046F66810C2F20100806A00F02DFCFFE795
:1069B00048F20000C4F20E001A2100F0E5FB400787
:1069C000002808D5FFE746F66810C2F20100806E85
:1069D00000F01AFCFFE780BD80B548F20000C4F269
:1069E0000E000B2100F0D0FB4007002808D5FFE780
:1069F00046F66810C2F20100C06A00F005FCFFE72D
:106A000048F20000C4F20E001B2100F0BDFB40075D
:106A1000002808D5FFE746F66810C2F20100C06EF4
:106A200000F0F2FBFFE780BD80B548F20000C4F241
:106A30000E000C2100F0A8FB4007002808D5FFE756
:106A400046F66810C2F20100006B00F0DDFBFFE7C4
:106A500048F20000C4F20E001C2100F095FB400734
:106A6000002808D5FFE746F66810C2F20100006F63
:106A700000F0CAFBFFE780BD80B548F20000C4F219
:106A80000E000D2100F080FB4007002808D5FFE72D
:106A900046F66810C2F20100406B00F0B5FBFFE75C
:106AA00048F20000C4F20E001D2100F06DFB40070B
:106AB000002808D5FFE746F66810C2F20100406FD3
:106AC00000F0A2FBFFE780BD80B548F20000C4F2F1
:106AD0000E000E2100F058FB4007002808D5FFE704
:106AE00046F66810C2F20100806B00F08DFBFFE7F4
:106AF00048F20000C4F20E001E2100F045FB4007E2
:106B0000002808D5FFE746F66810C2F20100806F42
:106B100000F07AFBFFE780BD80B548F20000C4F2C8
:106B20000E000F2100F030FB4007002808D5FFE7DA
:106B300046F66810C2F20100C06B00F065FBFFE78B
:106B400048F20000C4F20E001F2100F01DFB4007B8
:106B5000002808D5FFE746F66810C2F20100C06FB2
:106B600000F052FBFFE780BD80B548F20000C4F2A0
:106B70000E00012100F008FB4007002808D5FFE7C0
:106B800046F66810C2F20100406800F03DFBFFE7E6
:106B900048F20000C4F20E00112100F0F5FA40079F
:106BA000002808D5FFE746F66810C2F20100406CE5
:106BB00000F02AFBFFE780BD80B548F20000C4F278
:106BC0000E00022100F0E0FA4007002808D5FFE798
:106BD00046F66810C2F20100806800F015FBFFE77E
:106BE00048F20000C4F20E00122100F0CDFA400776
:106BF000002808D5FFE746F66810C2F20100806C55
:106C000000F002FBFFE780BD80B548F20000C4F24F
:106C10000E00032100F0B8FA4007002808D5FFE76E
:106C200046F66810C2F20100C06800F0EDFAFFE716
:106C300048F20000C4F20E00132100F0A5FA40074C
:106C4000002808D5FFE746F66810C2F20100C06CC4
:106C500000F0DAFAFFE780BD80B548F20000C4F228
:106C60000E00042100F090FA4007002808D5FFE745
:106C700046F66810C2F20100006900F0C5FAFFE7AD
:106C800048F20000C4F20E00142100F07DFA400723
:106C9000002808D5FFE746F66810C2F20100006D33
:106CA00000F0B2FAFFE780BD80B548F20000C4F200
:106CB0000E00052100F068FA4007002808D5FFE71C
:106CC00046F66810C2F20100406900F09DFAFFE745
:106CD00048F20000C4F20E00152100F055FA4007FA
:106CE000002808D5FFE746F66810C2F20100406DA3
:106CF00000F08AFAFFE780BD80B548F20000C4F2D8
:106D00000E00062100F040FA4007002808D5FFE7F2
:106D100046F66810C2F20100806900F075FAFFE7DC
:106D200048F20000C4F20E00162100F02DFA4007D0
:106D3000002808D5FFE746F66810C2F20100806D12
:106D400000F062FAFFE780BD80B548F20000C4F2AF
:106D50000E00072100F018FA4007002808D5FFE7C9
:106D600046F66810C2F20100C06900F04DFAFFE774
:106D700048F20000C4F20E00172100F005FA4007A7
:106D8000002808D5FFE746F66810C2F20100C06D82
:106D900000F03AFAFFE780BD80B548F20000C4F287
:106DA0000E00082100F0F0F94007002808D5FFE7A1
:106DB00046F66810C2F20100006A00F025FAFFE70B
:106DC00048F20000C4F20E00182100F0DDF940077F
:106DD000002808D5FFE746F66810C2F20100006EF1
:106DE00000F012FAFFE780BD80B548F20000C4F25F
:106DF0000E00092100F0C8F94007002808D5FFE778
:106E000046F66810C2F20100406A00F0FDF9FFE7A3
:106E100048F20000C4F20E00192100F0B5F9400755
:106E2000002808D5FFE746F66810C2F20100406E60
:106E300000F0EAF9FFE780BDB0B596B09C469646F3
:106E40000C4605468DF8530013918DF84B20119395
:106E500043F221500C90119808901398099000204B
:106E60008DF828008DF829009DF853008DF82A0030
:106E700001208DF82B008DF82C009DF84B008DF82B
:106E80003C009DF84B000128CDF81CC0CDF818E05F
:106E90000594049503D1FFE708A810901AE09DF827
:106EA0004B00022803D1FFE70C9815907CE09DF879
:106EB0004B00032803D1FFE70C98159074E09DF870
:106EC0004B00042803D1FFE70C9815906CE00C9858
:106ED000159069E046F62820C2F2010000211C222C
:106EE0000390FBF726FE039909610A690DA9029038
:106EF000104605F03DFB0C900C98002801D1FFE7EF
:106F00000BE043F22D10C8F2020043F2CE01C8F2AA
:106F100002014FF43D7207F067FD46F62820C2F2E9
:106F200001000169143001900846019905F0C8FB81
:106F30000C900C98002801D1FFE70BE043F22D10D4
:106F4000C8F2020043F2CE01C8F2020140F2FE2272
:106F500007F04AFD46F62820C2F201000169183008
:106F600000900846009905F053FB0C900C980028FF
:106F700001D1FFE70BE043F22D10C8F2020043F20B
:106F8000CE01C8F2020140F2093207F02DFD46F6AB
:106F90002820C2F20100006940F61C51C2F2010132
:106FA000086000201590FFE7159816B0B0BD0000EE
:106FB000B0B58AB09C4696460C46054609900891A5
:106FC0008DF81F20069300200590CDF810C0CDF855
:106FD0000CE002940195FFE705980699884221DAB2
:106FE000FFE708980068013080280CD3FFE7099874
:106FF0000899096800F050F808994FF0000EC1F8A0
:1070000000E00090FFE79DF81F000999089A1268B8
:1070100088540898016801310160FFE70598013044
:107020000590D9E70AB0B0BD83B080B5A7B02B9367
:107030002A9229910146259000202390229002A8AF
:10704000802201911146FBF772FD40F61C50C2F2FE
:1070500001000068002803D1FFE70020269014E01B
:1070600029A824902598249944F6B123C8F2000356
:1070700002AA009206F0DCF823902399009800F011
:107080000BF8229022982690FFE7269827B0BDE8BB
:10709000804003B07047000080B588B00A460346C0
:1070A0000690059143F2215004900698002803921F
:1070B000029301D0FFE70BE043F22210C8F2020076
:1070C00043F2CE01C8F2020140F2E91207F08CFC53
:1070D0000598002801D0FFE70BE043F21810C8F232
:1070E000020043F2CE01C8F202014FF4F57207F03C
:1070F0007BFC40F61C50C2F201000068002803D15E
:10710000FFE70020079017E00699059A46F6282029
:10711000C2F20100143005F0ABFB04900498002883
:1071200003D1FFE70598019003E04FF0FF30019095
:10713000FFE701980790FFE7079808B080BD0000BF
:10714000FFE7FEE70000000083B0EFF3108001903E
:1071500001980090EFF3108072B60290009803B08F
:10716000704700000000000083B0EFF31080019032
:1071700001980090EFF3108072B60290009803B06F
:10718000704700000000000086B00A4603460590E4
:10719000049104981F280292019301D8FFE70BE0A5
:1071A00042F64410C8F2020042F68711C8F202010A
:1071B00040F2C52207F018FC0020039005980499BE
:1071C00000EB411041F21C01405AC0B2039941EA60
:1071D000D01003900598C06A0499C84000F00100DF
:1071E000039941EA400003900598406A0499C84019
:1071F00000F00100039941EA80000390039806B073
:10720000704700000000000080B58AB00146099078
:1072100009980028039101D0FFE70BE042F67810AF
:10722000C8F2020042F68711C8F2020140F2215270
:1072300007F0DAFB0998017C8068C17709988168BA
:10724000007C01EB401041F21C01405AC0B2C00961
:107250008DF823000998C068002817D1FFE7099826
:107260000068002811D0FFE70998016842689DF87E
:10727000233003F001034FF0000C029111461A462F
:107280006346DDF808C0E047FFE788E009988168B9
:10729000007C01EB401041F218014058079009981A
:1072A000C0680799081A07900798400906909DF84A
:1072B0002300C007002804D0FFE706988DF81300CC
:1072C00011E00698002805D0FFE79DF81800013866
:1072D000019004E00998007D01380190FFE70198D2
:1072E0008DF81300FFE79DF813000999497C884247
:1072F00018D1FFE70998C07C8DF812000998007D2D
:107300008DF811009DF912009DF91110884205D1E8
:10731000FFE7099890F91300059002E0002005901E
:10732000FFE713E09DF81300099991F91110401A35
:1073300005900598B0F1FF3F07DCFFE7099890F949
:107340001400059908440590FFE7FFE79DF8130036
:107350000999487405980999CA7C101AC874099843
:10736000006800280FD0FFE7099801684268059B74
:107370009DF823C00CF0010C009111466246DDF827
:1073800000C0E047FFE79DF82300C007002805D0B4
:10739000FFE70998017C80680177FFE7FFE70AB003
:1073A00080BD00000000000080B544F20000C4F27F
:1073B0002D0000F019F880BD80B582B046F64C2053
:1073C000C2F20100006846F6E811C2F20101096844
:1073D00048F20002C4F22D0201901046019A904733
:1073E00002B080BD0000000080B588B00146079063
:1073F0000798406806900798049100F06DF8059092
:10740000069810F0406F13D0FFE746F65020C2F206
:10741000010000680799059A46F6E813C2F20103D5
:1074200053F82220039008461146039A9047FFE73D
:10743000069810F0407F13D0FFE746F64820C2F2CE
:10744000010000680799059A46F6E813C2F20103A5
:1074500053F82220029008461146029A9047FFE70F
:10746000069810F4C03F13D0FFE746F64C20C2F256
